:020000040800F2
:100000000028002079150008091500080F150008C0
:10001000151500081B150008211500080000000038
:10002000000000000000000000000000271500088C
:1000300033150008000000003F1500084B150008AC
:10004000C1150008C1150008C1150008C115000838
:10005000C1150008C1150008C1150008C115000828
:10006000C1150008C1150008C1150008C115000818
:10007000C1150008C1150008C1150008C115000808
:10008000C1150008C1150008C1150008C1150008F8
:10009000C1150008C1150008C1150008C1150008E8
:1000A000C1150008C1150008C1150008C1150008D8
:1000B00059150008C115000800000000C11500080E
:1000C000C11500080000000000000000C115000874
:1000D00000000000C1150008C11500080000000064
:1000E000C1150008C1150008C11500080000000076
:1000F0000000000000000000000000000000000000
:0C01000000000000000000005FF808F1A3
:10010C0010B5054C237833B9044B13B10448AFF345
:10011C0000800123237010BD5C0000200000000053
:10012C001C2C000808B5034B1BB103490348AFF363
:10013C00008008BD00000000600000201C2C00089E
:10014C0080B400AF064B1B68012B04D1044B00227A
:10015C001A60012300E000231846BD4680BC70479E
:10016C007800002080B400AF034B01221A6000BF5E
:10017C00BD4680BC704700BF7800002080B500AF42
:10018C00224B1B68224A1360224B1B681F4A1360C8
:10019C004FF40051204801F0FBFC03461A461D4B5E
:1001AC001A601B4B1A68194B1B689A422BD1174BC0
:1001BC001A68184B1B689A4225D1184B1A68154BB4
:1001CC001B689A420DD0134B1B68144A1360114BD9
:1001DC001B68002B17D1FFF7C5FF114BC8221A6003
:1001EC0011E00F4B1B68013B0D4A13600C4B1B6855
:1001FC00002B08D1074B1B68002B01D1FFF7B2FF76
:10020C00074BC8221A6000BF80BD00BF040000204D
:10021C000000002008000020000C01400C00002011
:10022C001000002080B400AF034B01221A6000BF05
:10023C00BD4680BC704700BF7C00002080B400AF7E
:10024C00064B1B68012B04D1044B00221A600123BE
:10025C0000E000231846BD4680BC70477C0000209F
:10026C0080B500AF224B1B68224A1360224B1B68DF
:10027C001F4A13604FF48041204801F089FC03466B
:10028C001A461D4B1A601B4B1A68194B1B689A4275
:10029C002BD1174B1A68184B1B689A4225D1184B57
:1002AC001A68154B1B689A420DD0134B1B68144AE5
:1002BC001360114B1B68002B17D1FFF7B3FF114BC9
:1002CC00C8221A6011E00F4B1B68013B0D4A1360EA
:1002DC000C4B1B68002B08D1074B1B68002B01D162
:1002EC00FFF7A0FF074BC8221A6000BF80BD00BFFC
:1002FC0018000020140000201C000020000C0140FD
:10030C00200000202400002080B400AF034B012209
:10031C001A6000BFBD4680BC704700BF8000002043
:10032C0080B400AF064B1B68012B04D1044B002298
:10033C001A60012300E000231846BD4680BC7047BC
:10034C008000002080B500AF224B1B68224A13604E
:10035C00224B1B681F4A13604FF40041204801F0E8
:10036C0017FC03461A461D4B1A601B4B1A68194B97
:10037C001B689A422BD1174B1A68184B1B689A4270
:10038C0025D1184B1A68154B1B689A420DD0134B8C
:10039C001B68144A1360114B1B68002B17D1FFF715
:1003AC00B3FF114BC8221A6011E00F4B1B68013BC5
:1003BC000D4A13600C4B1B68002B08D1074B1B68B4
:1003CC00002B01D1FFF7A0FF074BC8221A6000BF1A
:1003DC0080BD00BF2C000020280000203000002031
:1003EC00000C0140340000203800002080B500AF24
:1003FC00084B1B68012B0BD1192000F06BFF02215D
:10040C00054801F0F4FB0421034801F0F0FB00BFA8
:10041C0000BF80BD500100200008014080B500AF36
:10042C00084B1B68012B0BD1192000F07BFF2021FE
:10043C00054801F0DCFB4021034801F0D8FB00BF6C
:10044C0000BF80BD600100200008014080B500AFF6
:10045C00094B1B68012B0DD1192000F04FFF4FF4F5
:10046C000071064801F0C3FB4FF48061034801F0B2
:10047C00BEFB00BF00BF80BD58010020000801403A
:10048C0080B400AF1A4B1B681A4A82FB03129210FD
:10049C00DB17D31A184A1360184B1B68154A82FBDA
:1004AC0003129210DB17D31A154A1360104B1968FC
:1004BC00104B83FB01239A10CB17D21A13469B00C7
:1004CC0013445B00CA1A0F4B1A600C4B1968094B8A
:1004DC0083FB01239A10CB17D21A13469B001344AB
:1004EC005B00CA1A084B1A6000BFBD4680BC70473F
:1004FC0084000020676666662001002088000020CA
:10050C0028010020240100202C01002080B500AF20
:10051C00494B1B68032B5BD0032B00F38380012B0F
:10052C0002D0022B2AD07DE0FFF7AAFF0022022185
:10053C00424801F044FB01224FF400713F4801F0A6
:10054C003EFB012220213D4801F039FB3C4B1B684E
:10055C00012B69D1642000F081FE3A4B1B68013BF2
:10056C00384A1360374B1B68002B5DD1324B02228B
:10057C001A60354B5B68334A136055E0FFF780FF18
:10058C00012202212D4801F01AFB00224FF40071C8
:10059C002A4801F014FB01222021284801F00FFB0E
:1005AC00274B1B68012B41D1642000F057FE254BD3
:1005BC001B68013B234A1360224B1B68002B35D16F
:1005CC001D4B03221A60204B9B681E4A13602DE0C2
:1005DC00FFF756FF01220221184801F0F0FA012220
:1005EC004FF40071154801F0EAFA0022202113485B
:1005FC0001F0E5FA124B1B68012B19D1642000F0B5
:10060C002DFE104B1B68013B0E4A13600D4B1B68F3
:10061C00002B0DD1084B01221A600B4B1B68094AA9
:10062C00136005E000BF04E000BF02E000BF00E083
:10063C0000BF00BF80BD00BF3C000020000801408F
:10064C0040010020840000204400002080B500AF51
:10065C00494B1B68032B5BD0032B00F38380012BCE
:10066C0002D0022B2AD07DE0FFF70AFF01220421E1
:10067C00424801F0A4FA00224FF480613F4801F097
:10068C009EFA012240213D4801F099FA3C4B1B682F
:10069C00012B69D1642000F0F5FD3A4B1B68013B3E
:1006AC00384A1360374B1B68002B5DD1324B02224A
:1006BC001A60354B9B68334A136055E0FFF7E0FE38
:1006CC00012204212D4801F07AFA01224FF48061B5
:1006DC002A4801F074FA00224021284801F06FFAF0
:1006EC00274B1B68012B41D1642000F0CBFD254B1F
:1006FC001B68013B234A1360224B1B68002B35D12E
:10070C00214B1B681F4A13601B4B03221A602DE000
:10071C00FFF7B6FE00220421184801F050FA01221E
:10072C004FF48061154801F04AFA01224021134828
:10073C0001F045FA124B1B68012B19D1642000F013
:10074C00A1FD104B1B68013B0E4A13600D4B1B683F
:10075C00002B0DD10C4B5B680A4A1360064B01222F
:10076C001A6005E000BF04E000BF02E000BF00E03B
:10077C0000BF00BF80BD00BF40000020000801404A
:10078C0044010020880000204400002080B500AF08
:10079C0001220421074801F012FA01224FF4806172
:1007AC00044801F00CFA01224021024801F007FA3A
:1007BC0000BF80BD0008014080B500AF01220221BE
:1007CC00074801F0FCF901224FF40071044801F0D4
:1007DC00F6F901222021024801F0F1F900BF80BD99
:1007EC000008014080B400AF054B1B68054A13603C
:1007FC00034B5B68044A136000BFBD4680BC704766
:10080C0044000020840000208800002080B500AF48
:10081C007F4B1B68032B00F2F08001A252F823F0EF
:10082C003D0800086D080008FD0800088B09000849
:10083C00FFF76CFEFFF70AFFFFF782FC0346012B64
:10084C0040F0DD80724B01221A60724B02221A605A
:10085C00714B00221A60FFF7AFFFFFF797FFCEE056
:10086C00FFF7C4FD6D4B1B686D4A82FB031292109F
:10087C00DB17D31A6B4A1360684B1968684B83FB00
:10088C0001239A10CB17D21A13469B0013445B001A
:10089C00CA1A654B1A60FFF753FC0346012B0BD1A8
:1008AC005B4B02221A605B4B1B680133594A136085
:1008BC00FFF782FFFFF76AFFFFF732FD0346012BBC
:1008CC0002D1534B00221A60FFF7B8FC0346012BF0
:1008DC0040F09780514B1B68622B05DC4F4B1B681B
:1008EC0001334E4A13608CE04C4B01221A6088E0B5
:1008FC004A4B9B684A4A82FB03129210DB17D31AAD
:10090C00484A1360454B9968454B83FB01239A1069
:10091C00CB17D21A13469B0013445B00CA1A424BE6
:10092C001A60FFF77BFDFFF70BFC0346012B0BD185
:10093C00374B03221A60374B1B680133354A13605F
:10094C00FFF73AFFFFF722FFFFF778FC0346012B76
:10095C000CD1324B9B68622B05DC304B9B6801330E
:10096C002E4A936002E02D4B01229A60FFF7D8FCCF
:10097C000346012B47D1264B00221A6043E0274B3C
:10098C005B68274A82FB03129210DB17D31A254AA5
:10099C001360224B5968224B83FB01239A10CB170F
:1009AC00D21A13469B0013445B00CA1A1E4B1A60E2
:1009BC00FFF74CFDFFF7C4FB0346012B02D1144B90
:1009CC0001221A60FFF73AFC0346012B0CD1134BA2
:1009DC005B68622B05DC114B5B6801330F4A53607B
:1009EC0002E00E4B01225A60FFF79AFC0346012BE2
:1009FC000BD1074B00221A6007E000BF06E000BFD6
:100A0C0004E000BF02E000BF00E000BF00BF80BDFB
:100A1C008C0000202C010020280100204400002024
:100A2C0067666666200100202401002080B500AFB7
:100A3C0000F0C2FD00F01CF800F0F0F800F054F8E3
:100A4C0000F09EF8094801F023FDFFF7CBFE64206F
:100A5C0000F004FC642000F015FC192000F026FCCA
:100A6C0000F0DCFBFFF7D2FEFAE700BF900000209D
:100A7C0080B590B000AF07F118032822002118466A
:100A8C0002F0BEF83B1D00221A605A609A60DA60D0
:100A9C001A610223BB610123BB621023FB6200239A
:100AAC007B6307F11803184601F0BAF80346002BD4
:100ABC0001D000F027F90F237B600023BB600023DB
:100ACC00FB6000233B6100237B613B1D002118462A
:100ADC0001F028FB0346002B01D000F013F900BFF6
:100AEC004037BD4680BD000080B586B000AF07F131
:100AFC00080300221A605A609A60DA603B460022B2
:100B0C001A605A601D4B4FF080421A601B4B41F625
:100B1C003F725A60194B00229A60184B0922DA6016
:100B2C00164B00221A61154B00229A61134801F0F2
:100B3C005FFC0346002B01D000F0E4F84FF4805327
:100B4C00BB6007F1080319460C4801F0F5FD03469C
:100B5C00002B01D000F0D6F800233B6000237B6013
:100B6C003B461946054801F0BDFF0346002B01D05A
:100B7C0000F0C8F800BF1837BD4680BD90000020BB
:100B8C0080B586B000AF07F1080300221A605A60E6
:100B9C009A60DA603B4600221A605A601D4B1E4A6E
:100BAC001A601C4B41F63F725A601A4B00229A6035
:100BBC00184B40F2F312DA60164B00221A61154BF7
:100BCC0000229A61134801F013FC0346002B01D05C
:100BDC0000F098F84FF48053BB6007F108031946F6
:100BEC000C4801F0A9FD0346002B01D000F08AF857
:100BFC0000233B6000237B603B461946054801F00F
:100C0C0071FF0346002B01D000F07CF800BF1837B1
:100C1C00BD4680BDD80000200004004080B586B0E1
:100C2C0000AF07F1080300221A605A609A60DA607C
:100C3C00294B9B69284A43F004039361264B9B691B
:100C4C0003F004037B607B68234B9B69224A43F0CF
:100C5C0008039361204B9B6903F008033B603B68DE
:100C6C0000224FF266611D4800F0A9FF00224FF4EC
:100C7C00FE511B4800F0A3FF4FF26663BB600123DB
:100C8C00FB6000233B6102237B6107F108031946DB
:100C9C00124800F001FE4FF4FE53BB600123FB60D1
:100CAC0000233B6102237B6107F1080319460C48C2
:100CBC0000F0F2FD4FF46043BB600023FB600123A6
:100CCC003B6107F108031946054800F0E5FD00BF3C
:100CDC001837BD4680BD00BF00100240000801401F
:100CEC00000C014080B582B000AF786000F02EFBA4
:100CFC00FFF744FAFFF7B4FAFFF724FB00BF0837FD
:100D0C00BD4680BD80B400AF72B600BFFEE70000E8
:100D1C0080B500AF00224021134800F050FF0022A4
:100D2C008021114800F04BFF00224FF480710E48D7
:100D3C0000F045FF00224FF400710B4800F03FFF1C
:100D4C0000224FF48061084800F039FF00224FF474
:100D5C000061054800F033FF01224FF48051024836
:100D6C0000F02DFF00BF80BD000C014080B500AF2E
:100D7C0001224021134800F022FF0022802111485B
:100D8C0000F01DFF00224FF480710E4800F017FF99
:100D9C0001224FF400710B4800F011FF01224FF4B7
:100DAC008061084800F00BFF01224FF400610548F8
:100DBC0000F005FF01224FF48051024800F0FFFEC5
:100DCC0000BF80BD000C014080B500AF0022402167
:100DDC00134800F0F4FE00228021114800F0EFFED1
:100DEC0001224FF480710E4800F0E9FE00224FF40E
:100DFC0000710B4800F0E3FE00224FF480610848BC
:100E0C0000F0DDFE01224FF40061054800F0D7FE32
:100E1C0000224FF48051024800F0D1FE00BF80BD8B
:100E2C00000C014080B500AF00224021134800F0B7
:100E3C00C6FE00228021114800F0C1FE00224FF4B2
:100E4C0080710E4800F0BBFE00224FF400710B487D
:100E5C0000F0B5FE01224FF48061084800F0AFFEAF
:100E6C0001224FF40061054800F0A9FE00224FF466
:100E7C008051024800F0A3FE00BF80BD000C014071
:100E8C0080B500AF01224021134800F098FE0022EB
:100E9C008021114800F093FE00224FF480710E481F
:100EAC0000F08DFE01224FF400710B4800F087FE1C
:100EBC0001224FF48061084800F081FE00224FF4BB
:100ECC000061054800F07BFE00224FF4805102487F
:100EDC0000F075FE00BF80BD000C014080B500AF76
:100EEC0000224021134800F06AFE012280211148A3
:100EFC0000F065FE00224FF480710E4800F05FFE9A
:100F0C0000224FF400710B4800F059FE01224FF4FF
:100F1C008061084800F053FE00224FF40061054840
:100F2C0000F04DFE00224FF48051024800F047FEC5
:100F3C0000BF80BD000C014080B500AF00224021F5
:100F4C00134800F03CFE01228021114800F037FECE
:100F5C0000224FF480710E4800F031FE00224FF455
:100F6C0000710B4800F02BFE00224FF48061084802
:100F7C0000F025FE00224FF40061054800F01FFE32
:100F8C0000224FF48051024800F019FE00BF80BDD2
:100F9C00000C014080B500AF00224021134800F046
:100FAC000EFE00228021114800F009FE00224FF4B1
:100FBC0080710E4800F003FE01224FF400710B48C3
:100FCC0000F0FDFD01224FF48061084800F0F7FDB0
:100FDC0001224FF40061054800F0F1FD01224FF4AD
:100FEC008051024800F0EBFD00BF80BD000C0140B9
:100FFC0080B500AF00224021134800F0E0FD002234
:10100C008021114800F0DBFD00224FF480710E4866
:10101C0000F0D5FD00224FF400710B4800F0CFFD1D
:10102C0000224FF48061084800F0C9FD00224FF403
:10103C000061054800F0C3FD00224FF480510248C6
:10104C0000F0BDFD00BF80BD000C014080B500AFBD
:10105C0000224021134800F0B2FD002280211148EB
:10106C0000F0ADFD00224FF480710E4800F0A7FD9A
:10107C0000224FF400710B4800F0A1FD01224FF447
:10108C008061084800F09BFD00224FF40061054888
:10109C0000F095FD00224FF48051024800F08FFDC6
:1010AC0000BF80BD000C014080B582B000AF7860FD
:1010BC007B68092B34D801A252F823F0F1100008F8
:1010CC00F7100008FD1000080311000809110008B2
:1010DC000F110008151100081B1100082111000840
:1010EC0027110008FFF714FE1BE0FFF73FFE18E086
:1010FC00FFF76AFE15E0FFF795FE12E0FFF7C0FE62
:10110C000FE0FFF7EBFE0CE0FFF716FF09E0FFF72F
:10111C0041FF06E0FFF76CFF03E0FFF797FF00E0ED
:10112C0000BF00BF0837BD4680BD00BF80B500AF13
:10113C0001224FF400510B4800F041FD01224FF405
:10114C008041084800F03BFD01224FF40041054866
:10115C0000F035FD01224FF48051024800F02FFDC4
:10116C0000BF80BD0008014080B582B000AF786040
:10117C007B68032B42D801A252F823F09911000886
:10118C00B5110008D1110008ED110008FFF7CEFFD2
:10119C001D4B1B681846FFF787FF00224FF4805148
:1011AC001A4800F00CFD2AE0FFF7C0FF184B1B6833
:1011BC001846FFF779FF00224FF40051134800F056
:1011CC00FEFC1CE0FFF7B2FF124B1B681846FFF742
:1011DC006BFF00224FF480410C4800F0F0FC0EE055
:1011EC00FFF7A4FF0C4B1B681846FFF75DFF0022AE
:1011FC004FF40041054800F0E2FC00E000BF00BFE6
:10120C000837BD4680BD00BF20010020000801400A
:10121C0024010020280100202C01002080B500AF03
:10122C000C4B1B68012B13D1192000F03FF80A4B13
:10123C001B681846FFF798FF074B1B6801335A428F
:10124C0003F0030302F0030258BF5342024A136037
:10125C0000BF80BD480100203001002080B483B065
:10126C0000AF7860054A7B681360054B00221A605A
:10127C0000BF0C37BD4680BC704700BF3401002056
:10128C004001002080B483B000AF7860054A7B68D1
:10129C001360054B00221A6000BF0C37BD4680BCA2
:1012AC00704700BF380100204401002080B483B097
:1012BC0000AF7860054A7B681360054B00221A600A
:1012CC0000BF0C37BD4680BC704700BF3C010020FE
:1012DC004801002080B483B000AF7860054A7B6879
:1012EC001360054B00221A6000BF0C37BD4680BC52
:1012FC00704700BF4C0100205001002080B483B027
:10130C0000AF7860054A7B681360054B00221A60B9
:10131C0000BF0C37BD4680BC704700BF5401002095
:10132C005801002080B483B000AF7860054A7B6818
:10133C001360054B00221A6000BF0C37BD4680BC01
:10134C00704700BF5C0100206001002080B400AF3A
:10135C00314B1B68002B04DD2F4B1B68013B2E4AC5
:10136C0013602D4B1B68002B02DC2C4B01221A60E6
:10137C002B4B1B68002B04DD294B1B68013B284AB7
:10138C001360274B1B68002B02DC264B01221A60D2
:10139C00254B1B68002B04DD234B1B68013B224AA9
:1013AC001360214B1B68002B02DC204B01221A60BE
:1013BC001F4B1B68002B04DD1D4B1B68013B1C4A9B
:1013CC0013601B4B1B68002B02DC1A4B01221A60AA
:1013DC00194B1B68002B04DD174B1B68013B164A8D
:1013EC001360154B1B68002B02DC144B01221A6096
:1013FC00134B1B68002B04DD114B1B68013B104A7F
:10140C0013600F4B1B68002B02DC0E4B01221A6081
:10141C0000BFBD4680BC7047340100204001002055
:10142C0038010020440100203C010020480100202C
:10143C004C010020500100205C01002060010020C4
:10144C00540100205801002080B483B000AF0E4B33
:10145C009B690D4A43F0010393610B4B9B6903F0AD
:10146C0001037B607B68084BDB69074A43F08053C0
:10147C00D361054BDB6903F080533B603B6800BFD5
:10148C000C37BD4680BC70470010024080B584B05C
:10149C0000AF78607B681B68B3F1804F14D1154B9B
:1014AC00DB69144A43F00103D361124BDB6903F08F
:1014BC000103FB60FB68002200211C2000F0B5F941
:1014CC001C2000F0CEF910E07B681B680A4A93429E
:1014DC000BD1084BDB69074A43F00203D361054B80
:1014EC00DB6903F00203BB60BB6800BF1037BD466D
:1014FC0080BD00BF001002400004004080B400AF6B
:10150C00FEE780B400AFFEE780B400AFFEE780B426
:10151C0000AFFEE780B400AFFEE780B400AF00BFC1
:10152C00BD4680BC704780B400AF00BFBD4680BCD8
:10153C00704780B400AF00BFBD4680BC704780B51B
:10154C0000AF00F07FF800BF80BD000080B500AF99
:10155C00024800F0E9FF00BF80BD00BF90000020F2
:10156C0080B400AF00BFBD4680BC70470C480D492D
:10157C000D4A002302E0D458C4500433C4188C42E2
:10158C00F9D30A4A0A4C002301E013600432A24248
:10159C00FBD3FFF7E5FF01F00FFBFFF747FA7047AE
:1015AC00000000205C0000205C2C00085C00002087
:1015BC0068010020FEE7000080B500AF084B1B68F7
:1015CC00074A43F010031360032000F023F90F20A7
:1015DC0000F008F8FFF738FF0023184680BD00BF65
:1015EC000020024080B582B000AF7860124B1A68C0
:1015FC00124B1B7819464FF47A73B3FBF1F3B2FB21
:10160C00F3F3184600F03BF90346002B01D00123FD
:10161C000EE07B680F2B0AD8002279684FF0FF3060
:10162C0000F003F9064A7B681360002300E00123F5
:10163C0018460837BD4680BD5000002058000020D9
:10164C005400002080B400AF054B1B781A46054BA4
:10165C001B681344034A136000BFBD4680BC70472F
:10166C00580000206401002080B400AF024B1B68BE
:10167C001846BD4680BC70476401002080B485B01C
:10168C0000AF78607B6803F00703FB600C4BDB68F2
:10169C00BB60BA684FF6FF031340BB60FB681A02CD
:1016AC00BB68134343F0BF6343F40033BB60044A8D
:1016BC00BB68D36000BF1437BD4680BC704700BF09
:1016CC0000ED00E080B400AF044BDB681B0A03F0B4
:1016DC0007031846BD4680BC704700BF00ED00E014
:1016EC0080B483B000AF0346FB7197F90730002B31
:1016FC000BDBFB7903F01F02064997F907305B09F6
:10170C00012000FA02F241F8232000BF0C37BD463D
:10171C0080BC704700E100E080B483B000AF0346AA
:10172C003960FB7197F90730002B0ADB3B68DAB2A2
:10173C000C4997F907301201D2B20B4483F80023FD
:10174C000AE03B68DAB20849FB7903F00F03043B6B
:10175C001201D2B20B441A7600BF0C37BD4680BCC6
:10176C00704700BF00E100E000ED00E080B489B0FC
:10177C0000AFF860B9607A60FB6803F00703FB61A7
:10178C00FB69C3F10703042B28BF0423BB61FB696E
:10179C000433062B02D9FB69033B00E000237B6179
:1017AC004FF0FF32BB6902FA03F3DA43BB681A400D
:1017BC007B699A404FF0FF317B6901FA03F3D943FF
:1017CC007B680B40134318462437BD4680BC7047DA
:1017DC0080B582B000AF78607B68013BB3F1807F4D
:1017EC0001D301230FE00A4A7B68013B53600F21B0
:1017FC004FF0FF30FFF790FF054B00229A60044B2F
:10180C0007221A60002318460837BD4680BD00BF6A
:10181C0010E000E080B582B000AF78607868FFF728
:10182C002DFF00BF0837BD4680BD80B586B000AF28
:10183C000346B9607A60FB7300237B61FFF742FFBC
:10184C0078617A68B9687869FFF790FF024697F972
:10185C000F3011461846FFF75FFF00BF1837BD4623
:10186C0080BD80B582B000AF0346FB7197F907309D
:10187C001846FFF735FF00BF0837BD4680BD80B561
:10188C0082B000AF78607868FFF7A2FF0346184675
:10189C000837BD4680BD000080B48BB000AF7860C7
:1018AC00396000237B6200233B6261E101227B6A89
:1018BC0002FA03F3FB613B681B68FA691340BB61D6
:1018CC00BA69FB699A4240F050813B685B68974A61
:1018DC0093425ED0954A934275D8954A934258D01C
:1018EC00934A93426FD8934A934252D0914A93426F
:1018FC0069D8914A93424CD08F4A934263D88F4A0D
:10190C00934246D08D4A93425DD8122B2AD8122B83
:10191C0059D801A252F823F09F1900087919000830
:10192C008B190008CD190008D3190008D319000829
:10193C00D3190008D3190008D3190008D3190008CB
:10194C00D3190008D3190008D3190008D3190008BB
:10195C00D3190008D3190008D319000881190008FD
:10196C0095190008764A934213D02CE03B68DB684B
:10197C003B6229E03B68DB6804333B6224E03B6854
:10198C00DB6808333B621FE03B68DB680C333B626F
:10199C001AE03B689B68002B02D104233B6213E0E6
:1019AC003B689B68012B05D108233B627B68FA6975
:1019BC001A6109E008233B627B68FA695A6103E00B
:1019CC0000233B6200E000BFBB69FF2B01D87B68A2
:1019DC0001E07B6804337B61BB69FF2B02D87B6A17
:1019EC009B0002E07B6A083B9B003B617B691A68A9
:1019FC000F213B6901FA03F3DB431A40396A3B6957
:101A0C0001FA03F31A437B691A603B685B6803F0C5
:101A1C008053002B00F0A9804A4B9B69494A43F044
:101A2C0001039361474B9B6903F00103BB60BB68E7
:101A3C00454A7B6A9B08023352F82330FB607B6A71
:101A4C0003F003039B000F2202FA03F3DB43FA6853
:101A5C001340FB607B683D4A93420DD07B683C4A47
:101A6C00934207D07B683B4A934201D1022304E0A6
:101A7C00032302E0012300E000237A6A02F0030250
:101A8C0092009340FA681343FB602F497B6A9B08D2
:101A9C000233FA6841F823203B685B6803F4803317
:101AAC00002B06D02C4B1A682B49BB6913430B60D7
:101ABC0006E0294B1A68BB69DB43274913400B60CE
:101ACC003B685B6803F40033002B06D0224B5A684A
:101ADC002149BB6913434B6006E01F4B5A68BB6935
:101AEC00DB431D4913404B603B685B6803F4801378
:101AFC00002B06D0184B9A681749BB6913438B60AF
:101B0C0006E0154B9A68BB69DB43134913408B60A5
:101B1C003B685B6803F40013002B1FD00E4BDA6894
:101B2C000D49BB691343CB601FE000BF00003210AE
:101B3C0000003110000022100000211000001210D3
:101B4C00000011100010024000000140000801408C
:101B5C00000C014000100140000401400B4BDA68FE
:101B6C00BB69DB4309491340CB607B6A01337B6261
:101B7C003B681A687B6A22FA03F3002B7FF496AE5B
:101B8C0000BF00BF2C37BD4680BC7047000401402D
:101B9C0080B485B000AF78600B467B807B689A6818
:101BAC007B881340002B02D00123FB7301E0002340
:101BBC00FB73FB7B18461437BD4680BC704780B462
:101BCC0083B000AF78600B467B8013467B707B78CC
:101BDC00002B03D07A887B681A6103E07B881A0497
:101BEC007B681A6100BF0C37BD4680BC704780B45F
:101BFC0085B000AF78600B467B807B68DB68FB6050
:101C0C007A88FB6813401A04FB68D9437B880B4025
:101C1C001A437B681A6100BF1437BD4680BC7047FD
:101C2C0080B586B000AF78607B68002B01D10123B2
:101C3C0072E27B681B6803F00103002B00F08780C5
:101C4C00924B5B6803F00C03042B0CD08F4B5B683E
:101C5C0003F00C03082B12D18C4B5B6803F480331C
:101C6C00B3F5803F0BD1894B1B6803F40033002B79
:101C7C006CD07B685B68002B68D101234CE27B68DD
:101C8C005B68B3F5803F06D1804B1B687F4A43F4F9
:101C9C00803313602EE07B685B68002B0CD17B4B90
:101CAC001B687A4A23F480331360784B1B68774A9D
:101CBC0023F4802313601DE07B685B68B3F5A02FD1
:101CCC000CD1724B1B68714A43F4802313606F4B29
:101CDC001B686E4A43F4803313600BE06B4B1B683C
:101CEC006A4A23F480331360684B1B68674A23F4F9
:101CFC00802313607B685B68002B13D0FFF7B4FC68
:101D0C00386108E0FFF7B0FC02463B69D31A642B3C
:101D1C0001D9032300E25D4B1B6803F40033002B55
:101D2C00F0D014E0FFF7A0FC386108E0FFF79CFC52
:101D3C0002463B69D31A642B01D90323ECE1534BC4
:101D4C001B6803F40033002BF0D100E000BF7B686C
:101D5C001B6803F00203002B63D04C4B5B6803F051
:101D6C000C03002B0BD0494B5B6803F00C03082BC6
:101D7C001CD1464B5B6803F48033002B16D1434BCC
:101D8C001B6803F00203002B05D07B681B69012B39
:101D9C0001D00123C0E13D4B1B6823F0F8027B68A6
:101DAC005B69DB00394913430B603AE07B681B69C4
:101DBC00002B20D0364B01221A60FFF755FC3861FE
:101DCC0008E0FFF751FC02463B69D31A022B01D9FC
:101DDC000323A1E12D4B1B6803F00203002BF0D071
:101DEC002A4B1B6823F0F8027B685B69DB002749F0
:101DFC0013430B6015E0264B00221A60FFF734FCEE
:101E0C00386108E0FFF730FC02463B69D31A022B1D
:101E1C0001D9032380E11D4B1B6803F00203002B47
:101E2C00F0D17B681B6803F00803002B3AD07B6869
:101E3C009B69002B19D0174B01221A60FFF714FC79
:101E4C00386108E0FFF710FC02463B69D31A022BFD
:101E5C0001D9032360E10D4B5B6A03F00203002BF5
:101E6C00F0D0012000F0A6FA1CE00A4B00221A6008
:101E7C00FFF7FAFB38610FE0FFF7F6FB02463B6910
:101E8C00D31A022B08D9032346E100BF00100240ED
:101E9C000000424280044242924B5B6A03F0020310
:101EAC00002BE9D17B681B6803F00403002B00F0C6
:101EBC00A6800023FB758B4BDB6903F08053002B52
:101ECC000DD1884BDB69874A43F08053D361854B36
:101EDC00DB6903F08053BB60BB680123FB75824B4D
:101EEC001B6803F48073002B18D17F4B1B687E4A50
:101EFC0043F480731360FFF7B7FB386108E0FFF71A
:101F0C00B3FB02463B69D31A642B01D9032303E1CB
:101F1C00754B1B6803F48073002BF0D07B68DB6877
:101F2C00012B06D16F4B1B6A6E4A43F001031362FF
:101F3C002DE07B68DB68002B0CD16A4B1B6A694A6D
:101F4C0023F001031362674B1B6A664A23F00403F8
:101F5C0013621CE07B68DB68052B0CD1614B1B6AA0
:101F6C00604A43F0040313625E4B1B6A5D4A43F004
:101F7C00010313620BE05B4B1B6A5A4A23F001030B
:101F8C001362584B1B6A574A23F0040313627B6895
:101F9C00DB68002B15D0FFF767FB38610AE0FFF711
:101FAC0063FB02463B69D31A41F28832934201D952
:101FBC000323B1E04B4B1B6A03F00203002BEED062
:101FCC0014E0FFF751FB38610AE0FFF74DFB0246C6
:101FDC003B69D31A41F28832934201D903239BE027
:101FEC00404B1B6A03F00203002BEED1FB7D012B4F
:101FFC0005D13C4BDB693B4A23F08053D3617B68B2
:10200C00DB69002B00F08780364B5B6803F00C0318
:10201C00082B61D07B68DB69022B46D1334B002245
:10202C001A60FFF721FB386108E0FFF71DFB024641
:10203C003B69D31A022B01D903236DE0294B1B6892
:10204C0003F00073002BF0D17B681B6AB3F5803F63
:10205C0008D1244B5B6823F400327B689B682149D0
:10206C0013434B601F4B5B6823F474127B68196A33
:10207C007B685B6A0B431B4913434B601B4B012270
:10208C001A60FFF7F1FA386108E0FFF7EDFA024643
:10209C003B69D31A022B01D903233DE0114B1B687A
:1020AC0003F00073002BF0D035E0104B00221A60C7
:1020BC00FFF7DAFA386108E0FFF7D6FA02463B6917
:1020CC00D31A022B01D9032326E0064B1B6803F01D
:1020DC000073002BF0D11EE07B68DB69012B07D16C
:1020EC00012319E0001002400070004060004242E1
:1020FC000B4B5B68FB60FB6803F480327B681B6AEC
:10210C009A4206D1FB6803F470127B685B6A9A42B0
:10211C0001D0012300E0002318461837BD4680BDCE
:10212C000010024080B584B000AF786039607B68E5
:10213C00002B01D10123D0E06A4B1B6803F007038D
:10214C003A689A4210D9674B1B6823F0070265491D
:10215C003B6813430B60634B1B6803F007033A683F
:10216C009A4201D00123B8E07B681B6803F002039C
:10217C00002B20D07B681B6803F00403002B05D0D8
:10218C00594B5B68584A43F4E06353607B681B68A7
:10219C0003F00803002B05D0534B5B68524A43F401
:1021AC0060535360504B5B6823F0F0027B689B6874
:1021BC004D4913434B607B681B6803F00103002BF4
:1021CC0040D07B685B68012B07D1474B1B6803F43D
:1021DC000033002B15D101237FE07B685B68022B59
:1021EC0007D1414B1B6803F00073002B09D101236D
:1021FC0073E03D4B1B6803F00203002B01D101235C
:10220C006BE0394B5B6823F003027B685B683649F3
:10221C0013434B60FFF728FAF8600AE0FFF724FA43
:10222C000246FB68D31A41F28832934201D9032348
:10223C0053E02D4B5B6803F00C027B685B689B00E2
:10224C009A42EBD1274B1B6803F007033A689A427A
:10225C0010D2244B1B6823F0070222493B6813431E
:10226C000B60204B1B6803F007033A689A4201D0BD
:10227C00012332E07B681B6803F00403002B08D0B9
:10228C00194B5B6823F4E0627B68DB6816491343E7
:10229C004B607B681B6803F00803002B09D0124BC2
:1022AC005B6823F460527B681B69DB000E491343A7
:1022BC004B6000F021F802460B4B5B681B0903F0E6
:1022CC000F030A49CB5C22FA03F3094A1360094B4A
:1022DC001B681846FFF786F9002318461037BD46D1
:1022EC0080BD00BF0020024000100240442C0008BA
:1022FC00500000205400002090B48AB000AF294B4D
:10230C003C1D0FCB84E80F0040F201233B800023DF
:10231C00FB610023BB6100237B6200237B610023F4
:10232C003B62214B5B68FB61FB6903F00C03042BE4
:10233C0002D0082B03D02BE01C4B3B622BE0FB693B
:10234C009B0C03F00F0328333B4413F8243C7B61B4
:10235C00FB6903F48033002B12D0134B5B685B0CCE
:10236C0003F0010328333B4413F8283CBB617B6921
:10237C000E4A03FB02F2BB69B2FBF3F37B6204E08F
:10238C007B690B4A02FB03F37B627B6A3B6202E0D4
:10239C00064B3B6200BF3B6A18462837BD4690BCD3
:1023AC00704700BF342C00080010024000127A0065
:1023BC0000093D0080B485B000AF78600A4B1B6803
:1023CC000A4AA2FB03235B0A7A6802FB03F3FB6055
:1023DC0000BFFB685A1EFA60002BF9D100BF00BF8A
:1023EC001437BD4680BC704750000020D34D62109E
:1023FC0080B582B000AF78607B68002B01D10123DF
:10240C0041E07B6893F83D30DBB2002B06D17B6852
:10241C00002283F83C207868FFF738F87B680222AA
:10242C0083F83D207B681A687B6804331946104694
:10243C0000F06AFA7B68012283F846207B6801224F
:10244C0083F83E207B68012283F83F207B680122C1
:10245C0083F840207B68012283F841207B680122AD
:10246C0083F842207B68012283F843207B68012299
:10247C0083F844207B68012283F845207B68012285
:10248C0083F83D20002318460837BD4680BD000068
:10249C0080B485B000AF78607B6893F83D30DBB2D8
:1024AC00012B01D0012335E07B68022283F83D200B
:1024BC007B681B68DA687B681B6842F00102DA6093
:1024CC007B681B68164A934209D07B681B68B3F182
:1024DC00804F04D07B681B68124A934211D17B68F1
:1024EC001B689B6803F00703FB60FB68062B10D08E
:1024FC007B681B681A687B681B6842F001021A60D3
:10250C0007E07B681B681A687B681B6842F0010255
:10251C001A60002318461437BD4680BC704700BFB4
:10252C00002C01400004004080B582B000AF786000
:10253C007B681B681B6903F00203022B22D17B68AA
:10254C001B68DB6803F00203022B1BD17B681B6842
:10255C006FF002021A617B6801221A777B681B6894
:10256C009B6903F00303002B03D0786800F0B1F9EA
:10257C0005E0786800F0A4F9786800F0B3F97B689E
:10258C0000221A777B681B681B6903F00403042B79
:10259C0022D17B681B68DB6803F00403042B1BD17E
:1025AC007B681B686FF004021A617B6802221A7741
:1025BC007B681B689B6903F44073002B03D078681D
:1025CC0000F087F905E0786800F07AF9786800F097
:1025DC0089F97B6800221A777B681B681B6903F0FA
:1025EC000803082B22D17B681B68DB6803F0080307
:1025FC00082B1BD17B681B686FF008021A617B6883
:10260C0004221A777B681B68DB6903F00303002B39
:10261C0003D0786800F05DF905E0786800F050F9B7
:10262C00786800F05FF97B6800221A777B681B687A
:10263C001B6903F01003102B22D17B681B68DB682D
:10264C0003F01003102B1BD17B681B686FF010027A
:10265C001A617B6808221A777B681B68DB6903F4B4
:10266C004073002B03D0786800F033F905E07868EC
:10267C0000F026F9786800F035F97B6800221A77AB
:10268C007B681B681B6903F00103012B0ED17B686F
:10269C001B68DB6803F00103012B07D17B681B6807
:1026AC006FF001021A617868FEF71CFB7B681B68EF
:1026BC001B6903F08003802B0ED17B681B68DB68E1
:1026CC0003F08003802B07D17B681B686FF08002BE
:1026DC001A61786800F067FA7B681B681B6903F065
:1026EC004003402B0ED17B681B68DB6803F0400372
:1026FC00402B07D17B681B686FF040021A61786829
:10270C0000F0F9F87B681B681B6903F02003202B91
:10271C000ED17B681B68DB6803F02003202B07D1EC
:10272C007B681B686FF020021A61786800F032FA3F
:10273C0000BF0837BD4680BD80B584B000AF78605F
:10274C0039607B6893F83C30012B01D10223B3E054
:10275C007B68012283F83C207B68022283F83D20B1
:10276C007B681B689B68FB60FB6823F07703FB604E
:10277C00FB6823F47F43FB607B681B68FA689A60F4
:10278C003B681B68B3F5005F3ED0B3F5005F00F209
:10279C008780B3F5805F00F08580B3F5805F7FD8CC
:1027AC00702B1AD0702B7BD8602B50D0602B77D825
:1027BC00502B3CD0502B73D8402B58D0402B6FD87B
:1027CC00302B64D0302B6BD8202B60D0202B67D8CB
:1027DC00002B5CD0102B5AD062E07B6818683B68E9
:1027EC0099683B685A683B68DB6800F05CF97B6869
:1027FC001B689B68FB60FB6843F07703FB607B689E
:10280C001B68FA689A604EE07B6818683B689968A8
:10281C003B685A683B68DB6800F045F97B681B68CD
:10282C009A687B681B6842F480429A603BE07B6844
:10283C0018683B6859683B68DB681A4600F0BCF8BE
:10284C007B681B685021184600F013F92BE07B685D
:10285C0018683B6859683B68DB681A4600F0DAF880
:10286C007B681B686021184600F003F91BE07B684D
:10287C0018683B6859683B68DB681A4600F09CF89E
:10288C007B681B684021184600F0F3F80BE07B686E
:10289C001A683B681B681946104600F0EAF802E01B
:1028AC0000BF00E000BF7B68012283F83D207B68FD
:1028BC00002283F83C20002318461037BD4680BD0B
:1028CC0080B483B000AF786000BF0C37BD4680BCCD
:1028DC00704780B483B000AF786000BF0C37BD4642
:1028EC0080BC704780B483B000AF786000BF0C37F9
:1028FC00BD4680BC704780B483B000AF786000BF29
:10290C000C37BD4680BC704780B485B000AF786092
:10291C0039607B681B68FB607B68254A934207D053
:10292C007B68B3F1804F03D07B68224A934208D175
:10293C00FB6823F07003FB603B685B68FA68134329
:10294C00FB607B681A4A934207D07B68B3F1804FD7
:10295C0003D07B68174A934208D1FB6823F4407379
:10296C00FB603B68DB68FA681343FB60FB6823F091
:10297C0080023B685B691343FB607B68FA681A60F2
:10298C003B689A687B68DA623B681A687B689A6273
:10299C007B68074A934203D13B681A697B681A63C8
:1029AC007B6801225A6100BF1437BD4680BC70475A
:1029BC00002C01400004004080B487B000AFF860E8
:1029CC00B9607A60FB681B6A7B61FB681B6A23F049
:1029DC000102FB681A62FB689B693B613B6923F04F
:1029EC00F0033B617B681B013A6913433B617B69D4
:1029FC0023F00A037B617A69BB6813437B61FB6834
:102A0C003A699A61FB687A691A6200BF1C37BD4645
:102A1C0080BC704780B487B000AFF860B9607A6052
:102A2C00FB681B6A23F01002FB681A62FB689B6947
:102A3C007B61FB681B6A3B617B6923F470437B61A0
:102A4C007B681B037A6913437B613B6923F0A0030A
:102A5C003B61BB681B013A6913433B61FB687A69B4
:102A6C009A61FB683A691A6200BF1C37BD4680BC8C
:102A7C00704780B485B000AF786039607B689B6824
:102A8C00FB60FB6823F07003FB603A68FB68134340
:102A9C0043F00703FB607B68FA689A6000BF143749
:102AAC00BD4680BC704780B487B000AFF860B96099
:102ABC007A603B60FB689B687B617B6923F47F4396
:102ACC007B613B681A027B681A43BB6813437A69C3
:102ADC0013437B61FB687A699A6000BF1C37BD4663
:102AEC0080BC704780B485B000AF786039607B687B
:102AFC0093F83C30012B01D1022341E07B68012289
:102B0C0083F83C207B68022283F83D207B681B689D
:102B1C005B68FB607B681B689B68BB60FB6823F091
:102B2C007003FB603B681B68FA681343FB607B68AF
:102B3C001B68FA685A607B681B68144A934209D078
:102B4C007B681B68B3F1804F04D07B681B68104A0C
:102B5C0093420CD1BB6823F08003BB603B685B687D
:102B6C00BA681343BB607B681B68BA689A607B6861
:102B7C00012283F83D207B68002283F83C2000234F
:102B8C0018461437BD4680BC704700BF002C01406E
:102B9C000004004080B483B000AF786000BF0C37F5
:102BAC00BD4680BC704780B483B000AF786000BF76
:102BBC000C37BD4680BC704770B500260C4D0D4CD3
:102BCC00641BA410A64209D100F022F800260A4D7D
:102BDC000A4C641BA410A64205D170BD55F8043BE9
:102BEC0098470136EEE755F8043B98470136F2E773
:102BFC00542C0008542C0008542C0008582C0008A5
:102C0C0003460244934200D1704703F8011BF9E7D5
:102C1C00F8B500BFF8BC08BC9E467047F8B500BFBD
:082C2C00F8BC08BC9E4670478D
:102C340002030405060708090A0B0C0D0E0F1010F9
:102C44000000000000000000010203040607080958
:042C54003101000842
:042C58000D01000862
:102C5C000100000001000000010000000100000064
:102C6C00C80000000100000001000000010000008D
:102C7C0001000000C800000001000000010000007D
:102C8C000100000001000000C8000000010000006D
:102C9C00010000000500000003000000020000001D
:0C2CAC000024F4001000000001000000F3
:040000050800157961
:00000001FF
